{
  "contractName": "TestTokenSale",
  "abi": [
    {
      "constant": true,
      "inputs": [],
      "name": "name",
      "outputs": [
        {
          "name": "",
          "type": "string"
        }
      ],
      "payable": false,
      "stateMutability": "view",
      "type": "function"
    },
    {
      "constant": true,
      "inputs": [],
      "name": "endTime",
      "outputs": [
        {
          "name": "",
          "type": "uint256"
        }
      ],
      "payable": false,
      "stateMutability": "view",
      "type": "function"
    },
    {
      "constant": true,
      "inputs": [],
      "name": "tokensSold",
      "outputs": [
        {
          "name": "",
          "type": "uint256"
        }
      ],
      "payable": false,
      "stateMutability": "view",
      "type": "function"
    },
    {
      "constant": true,
      "inputs": [],
      "name": "tokenContract",
      "outputs": [
        {
          "name": "",
          "type": "address"
        }
      ],
      "payable": false,
      "stateMutability": "view",
      "type": "function"
    },
    {
      "constant": true,
      "inputs": [],
      "name": "startTime",
      "outputs": [
        {
          "name": "",
          "type": "uint256"
        }
      ],
      "payable": false,
      "stateMutability": "view",
      "type": "function"
    },
    {
      "constant": true,
      "inputs": [],
      "name": "tokenPrice",
      "outputs": [
        {
          "name": "",
          "type": "uint256"
        }
      ],
      "payable": false,
      "stateMutability": "view",
      "type": "function"
    },
    {
      "constant": true,
      "inputs": [],
      "name": "stage",
      "outputs": [
        {
          "name": "",
          "type": "uint8"
        }
      ],
      "payable": false,
      "stateMutability": "view",
      "type": "function"
    },
    {
      "constant": true,
      "inputs": [],
      "name": "admin",
      "outputs": [
        {
          "name": "",
          "type": "address"
        }
      ],
      "payable": false,
      "stateMutability": "view",
      "type": "function"
    },
    {
      "inputs": [
        {
          "name": "_tokenContract",
          "type": "address"
        },
        {
          "name": "_tokenPrice",
          "type": "uint256"
        },
        {
          "name": "_endTime",
          "type": "uint256"
        }
      ],
      "payable": false,
      "stateMutability": "nonpayable",
      "type": "constructor"
    },
    {
      "payable": true,
      "stateMutability": "payable",
      "type": "fallback"
    },
    {
      "anonymous": false,
      "inputs": [
        {
          "indexed": false,
          "name": "_buyer",
          "type": "address"
        },
        {
          "indexed": false,
          "name": "_amount",
          "type": "uint256"
        }
      ],
      "name": "Sell",
      "type": "event"
    },
    {
      "constant": false,
      "inputs": [
        {
          "name": "_beneficiary",
          "type": "address"
        }
      ],
      "name": "buyTokensHere",
      "outputs": [],
      "payable": true,
      "stateMutability": "payable",
      "type": "function"
    },
    {
      "constant": false,
      "inputs": [],
      "name": "endSale",
      "outputs": [],
      "payable": false,
      "stateMutability": "nonpayable",
      "type": "function"
    },
    {
      "constant": false,
      "inputs": [],
      "name": "emergencyExtract",
      "outputs": [],
      "payable": false,
      "stateMutability": "nonpayable",
      "type": "function"
    }
  ],
  "bytecode": "0x60806040526000600660006101000a81548160ff0219169083600281111561002357fe5b02179055504360075534801561003857600080fd5b50604051606080610b8b833981018060405281019080805190602001909291908051906020019092919080519060200190929190505050336000806101000a81548173ffffffffffffffffffffffffffffffffffffffff021916908373ffffffffffffffffffffffffffffffffffffffff16021790555082600160006101000a81548173ffffffffffffffffffffffffffffffffffffffff021916908373ffffffffffffffffffffffffffffffffffffffff1602179055508160028190555080600581905550505050610a7b806101106000396000f3006080604052600436106100af576000357c0100000000000000000000000000000000000000000000000000000000900463ffffffff16806306fdde031461017f5780633197cbb61461020f578063380d831b1461023a578063518ab2a81461025157806355a373d61461027c5780635c709adc146102d35780635fa512771461030957806378e97925146103205780637ff9b5961461034b578063c040e6b814610376578063f851a440146103af575b600060028111156100bc57fe5b600660009054906101000a900460ff1660028111156100d757fe5b1480156100e8575060078054014310155b156100f6576100f5610406565b5b6001600281111561010357fe5b600660009054906101000a900460ff16600281111561011e57fe5b1480156101305750600f600754014310155b1561013e5761013d610406565b5b60028081111561014a57fe5b600660009054906101000a900460ff16600281111561016557fe5b141561017457610173610453565b5b61017d33610562565b005b34801561018b57600080fd5b506101946107a5565b6040518080602001828103825283818151815260200191508051906020019080838360005b838110156101d45780820151818401526020810190506101b9565b50505050905090810190601f1680156102015780820380516001836020036101000a031916815260200191505b509250505060405180910390f35b34801561021b57600080fd5b50610224610843565b6040518082815260200191505060405180910390f35b34801561024657600080fd5b5061024f610453565b005b34801561025d57600080fd5b50610266610849565b6040518082815260200191505060405180910390f35b34801561028857600080fd5b5061029161084f565b604051808273ffffffffffffffffffffffffffffffffffffffff1673ffffffffffffffffffffffffffffffffffffffff16815260200191505060405180910390f35b610307600480360381019080803573ffffffffffffffffffffffffffffffffffffffff169060200190929190505050610562565b005b34801561031557600080fd5b5061031e610875565b005b34801561032c57600080fd5b50610335610951565b6040518082815260200191505060405180910390f35b34801561035757600080fd5b50610360610957565b6040518082815260200191505060405180910390f35b34801561038257600080fd5b5061038b61095d565b6040518082600281111561039b57fe5b60ff16815260200191505060405180910390f35b3480156103bb57600080fd5b506103c4610970565b604051808273ffffffffffffffffffffffffffffffffffffffff1673ffffffffffffffffffffffffffffffffffffffff16815260200191505060405180910390f35b6001600660009054906101000a900460ff16600281111561042357fe5b01600281111561042f57fe5b600660006101000a81548160ff0219169083600281111561044c57fe5b0217905550565b6000809054906101000a900473ffffffffffffffffffffffffffffffffffffffff1673ffffffffffffffffffffffffffffffffffffffff163373ffffffffffffffffffffffffffffffffffffffff161415156104ae57600080fd5b6002808111156104ba57fe5b600660009054906101000a900460ff1660028111156104d557fe5b1415156104e157600080fd5b6000809054906101000a900473ffffffffffffffffffffffffffffffffffffffff1673ffffffffffffffffffffffffffffffffffffffff166108fc3073ffffffffffffffffffffffffffffffffffffffff16319081150290604051600060405180830381858888f1935050505015801561055f573d6000803e3d6000fd5b50565b6000806000600281111561057257fe5b600660009054906101000a900460ff16600281111561058d57fe5b14801561059e575060078054014310155b156105ac576105ab610406565b5b600160028111156105b957fe5b600660009054906101000a900460ff1660028111156105d457fe5b1480156105e65750600f600754014310155b156105f4576105f3610406565b5b60028081111561060057fe5b600660009054906101000a900460ff16600281111561061b57fe5b141561062a57610629610453565b5b6000341415151561063a57600080fd5b34915061064682610995565b9050600160009054906101000a900473ffffffffffffffffffffffffffffffffffffffff1673ffffffffffffffffffffffffffffffffffffffff166379c6506884836040518363ffffffff167c0100000000000000000000000000000000000000000000000000000000028152600401808373ffffffffffffffffffffffffffffffffffffffff1673ffffffffffffffffffffffffffffffffffffffff16815260200182815260200192505050600060405180830381600087803b15801561070d57600080fd5b505af1158015610721573d6000803e3d6000fd5b50505050806003600082825401925050819055507f5e5e995ce3133561afceaa51a9a154d5db228cd7525d34df5185582c18d3df093382604051808373ffffffffffffffffffffffffffffffffffffffff1673ffffffffffffffffffffffffffffffffffffffff1681526020018281526020019250505060405180910390a1505050565b60048054600181600116156101000203166002900480601f01602080910402602001604051908101604052809291908181526020018280546001816001161561010002031660029004801561083b5780601f106108105761010080835404028352916020019161083b565b820191906000526020600020905b81548152906001019060200180831161081e57829003601f168201915b505050505081565b60055481565b60035481565b600160009054906101000a900473ffffffffffffffffffffffffffffffffffffffff1681565b6000809054906101000a900473ffffffffffffffffffffffffffffffffffffffff1673ffffffffffffffffffffffffffffffffffffffff163373ffffffffffffffffffffffffffffffffffffffff161415156108d057600080fd5b6000809054906101000a900473ffffffffffffffffffffffffffffffffffffffff1673ffffffffffffffffffffffffffffffffffffffff166108fc3073ffffffffffffffffffffffffffffffffffffffff16319081150290604051600060405180830381858888f1935050505015801561094e573d6000803e3d6000fd5b50565b60075481565b60025481565b600660009054906101000a900460ff1681565b6000809054906101000a900473ffffffffffffffffffffffffffffffffffffffff1681565b60008060028111156109a357fe5b600660009054906101000a900460ff1660028111156109be57fe5b14156109e0576109d960025483610a3990919063ffffffff16565b9050610a34565b600160028111156109ed57fe5b600660009054906101000a900460ff166002811115610a0857fe5b1415610a3357610a2c66b1a2bc2ec500006002540383610a3990919063ffffffff16565b9050610a34565b5b919050565b60008183811515610a4657fe5b049050929150505600a165627a7a72305820e3ffe8f543353527250733de918d65bb17cafe41c8f8301a85fe3623615aac7a0029",
  "source": "pragma solidity ^0.4.20;\n\nimport \"./TestToken.sol\"; \nimport \"./SafeMath.sol\";\n\n/**\n *  The crowdsale contract is the first draft of the tokensale,\n    with the timed transitions for the stages and variable prices. \n */\ncontract TestTokenSale{\n\n  using SafeMath for uint256;\n\n  enum Stages{\n    saleStarted,\n    saleStage1,\n    saleEnded\n  }\n\n  address public admin;\n  TestToken public tokenContract; \n  uint256 public tokenPrice;\n  uint256 public tokensSold;\n\n  string public name;\n  \n  uint256 public endTime;\n  event Sell(address _buyer, uint256 _amount);\n\n  /* this is for the test purpose of the stages  \n   */\n   modifier onlyAdmin{\n    require (msg.sender == admin);\n    _;\n   }\n\n  Stages public stage = Stages.saleStarted;\n  uint256 public startTime = block.number; \n\n  // modifier for the next stage of the sale \n  function nextStage() internal{\n    stage = Stages(uint256(stage) + 1);\n  }\n\n  // time transitions \n  modifier timedTransitions(){\n    if(stage == Stages.saleStarted && block.number >= startTime + 7){\n      nextStage(); \n    }\n    if(stage == Stages.saleStage1 && block.number >= startTime + 15){\n      nextStage();\n    }\n    if(stage == Stages.saleEnded){\n      endSale();\n    }\n    _;\n\n  }\n\n  constructor(TestToken _tokenContract, uint256 _tokenPrice, uint256 _endTime) public{\n\n    admin = msg.sender;\n    tokenContract = _tokenContract;\n    tokenPrice = _tokenPrice;\n    endTime = _endTime;\n  }\n\n  //high level purchase \n  function() external timedTransitions payable{\n    buyTokensHere(msg.sender); \n  }\n\n    //low level purchase with the function being called inside\n  function buyTokensHere(address _beneficiary) public timedTransitions payable{ // change it to buyTokens\n    \n    require(msg.value != 0);\n    uint256 weiAmount = msg.value;\n    uint256 _numberOfTokens = _getTokenAmount(weiAmount);\n    //require(tokenContract.balanceOf(this) >= _numberOfTokens);\n    //require(tokenContract.transfer(msg.sender, _numberOfTokens));\n    //tokenContract.transfer(_beneficiary, _numberOfTokens); // this when sale is the owner\n    tokenContract.mintToken(_beneficiary, _numberOfTokens);\n    tokensSold += _numberOfTokens;\n    emit Sell(msg.sender, _numberOfTokens);\n  }\n\n\n  // gives the number of tokens to the amount of ether sent to contract\n  // this is where we do the numbers wrt the ether sent to the sale address.\n  function _getTokenAmount(uint256 _weiAmount) internal view returns(uint256){    \n    if(stage == Stages.saleStarted){\n      return _weiAmount.div(tokenPrice);\n    }\n    if(stage == Stages.saleStage1){\n      return _weiAmount.div(tokenPrice - 5e16);//50000000000000000);\n    }\n  }\n\n  //token sale ends and the function related to that goes here\n  function endSale() public onlyAdmin {\n    require(stage == Stages.saleEnded);\n    admin.transfer(address(this).balance);\n  }\n\n  function emergencyExtract() public onlyAdmin{\n    admin.transfer(address(this).balance);\n  }\n\n\n\n}\n\n",
  "sourcePath": "/Users/abe/Documents/personal/timed_sale/contracts/TestTokenSale.sol",
  "compiler": {
    "name": "solc",
    "version": "0.4.24+commit.e67f0147.Emscripten.clang"
  },
  "schemaVersion": "2.0.1",
  "updatedAt": "2018-10-23T19:44:02.355Z"
}